:03000000020006F5
:03005F0002000399
:0300030002006296
:2000620090E6007402F090E60104F00000000090E60B7403F00000000090E61474E0F00081
:2000820000000090E6047480F00000000090E6047482F00000000090E6047484F00000003E
:2000A2000090E6047486F00000000090E6047488F00000000090E604E4F00000000090E6B0
:2000C2001A740EF00000000090E670E4F00000000090E609E4F00000000090E6247402F085
:2000E2000000000090E625E4F00000000043B201D280E4F508F509F50AF50BC3E5089440E5
:20010200E509949CE50A9400E50B9400501774012508F508E43509F509E4350AF50AE43557
:200122000BF50B80D6C280E4F50CF50DF50EF50FC3E50C9440E50D949CE50E9400E50F9473
:1A0142000050AD7401250CF50CE4350DF50DE4350EF50EE4350FF50F80D62B
:06003500E478FFF6D8FD9F
:200013007900E94400601B7A009001607801759200E493F2A308B800020592D9F4DAF2754E
:0200330092FF3A
:20003B007800E84400600A7901759200E4F309D8FC7800E84400600C7900900001E4F0A3D1
:04005B00D8FCD9FAFA
:0D00060075810F12015CE5826003020003AA
:04015C007582002286
:00000001FF
