:03000000020006F5
:03005F0075080021
:0300740002000384
:030003000201EC0B
:20007700AF82BFB00050030201E8EF244450030201E8EF2450FE240A83F582EE241083F5D3
:2000970083E473B21BB22DB23FB24F5F82A5C800010001000100010101010190E68BE0FE9C
:2000B700BE020280047582002290E740E0FE90E741E0FDBFB01490E600E0FCEEF4FBEC52B0
:2000D70003EE5D90E6004BF08036BFB21490E601E0FCEEF4FBEC5203EE5D90E6014BF080E1
:2000F7001FBFB40FAF80EEF4FCEF5204EE5D4CF580800DAFB2EEF4FCEF5204EE5D4CF5B29B
:200117007582012290E600E090E740F090E68B7401F07582012290E601E090E740F090E6BD
:200137008B7401F07582012290E740E580F090E68B7401F07582012290E740E5B2F090E65E
:200157008B7401F07582012290E6A5E0FF90E740F0000000000000000090E68B7401F00077
:20017700000000000000007582012290E602E0FF90E740F0000000000000000090E68B74DB
:2001970001F000000000000000007582012290E603E0FF90E740F0000000000000000090AE
:2001B700E68B7401F000000000000000007582012290E740E508F000000000000000009014
:2001D700E68B7401F00000000000000000758201227582002290E600740AF000000000001B
:2001F70000000090E6017403F00000000090E601E0F50890E60B7403F00000000090E61444
:2002170074E0F00000000090E6047480F00000000090E6047482F00000000090E604748453
:20023700F00000000090E6047486F00000000090E6047488F00000000090E604E4F000009F
:20025700000090E61A740CF00000000090E670E4F00000000090E609E4F00000000090E604
:20027700247402F00000000090E625E4F00000000090E602E4F00000000090E603E4F000D5
:2002970000000043B2017C007D007E007F00C007C006C005C004120374D004D005D006D06D
:2002B700070CBC00090DBD00050EBE00010FBC400DBD9C0ABE0007BF0004D28080D0BC80D2
:1602D700CDBD38CABE01C7BF00C4C2807C007D007E007F0080B80C
:20078E0012010002FF000040B40413860001010200010902190001010080320904000001BB
:2007AE00FF00000007058602000200040309041003500068006100730065004C006D0012B3
:2007CE000346005800320020005300740072006D008E07A007A007A0070000B907BD07CD97
:0307EE00078E076C
:2002ED0090E6BBE0FFBF033990E6BAE0FF600ABF0102800BBF0214800C7EB97F0780107EF4
:20030D00BD7F07800A7ECD7F078004758200228E048F0590E6B3EDF090E6B4EEF075820169
:20032D0022758200227582012275820122E51045116010AD10AE11AF128D828E838FF0E4C6
:0C034D00120359758201227582012222E0
:0607F100B907BD07CD07AA
:06003500E478FFF6D8FD9F
:200013007900E94400601B7A009007F77801759200E493F2A308B800020592D9F4DAF275B1
:0200330092FF3A
:1B03590020F71130F6138883A88220F509F6A8837583002280FEF280F5F022A3
:20003B007800E84400600A7901759200E4F309D8FC7800E84400600C7900900001E4F0A3D1
:04005B00D8FCD9FAFA
:12006200750A00750B00750CE5750D07750EE3750F07AD
:2003740090E6B9E0FF24F45003020474EF240A83F582EF241083F583E473A6BB74D074745D
:20039400E574F50C23560303040304040304030404041204E7E582600302048990E6A0E0FF
:2003B40043E001F0020489120576E582600302048990E6A0E043E001F00204891205E5E526
:2003D40082600302048990E6A0E043E001F00204891202EDE58260030204891206950204EF
:2003F40089120332AF8290E740EFF090E68AE4F090E68B04F002048990E6BAE0F58212035E
:2004140036E582707090E6A0E043E001F0806690E6BCE0FF7510097511007512408F82124C
:20043400033AE582700A90E6A0E043E001F0804590E740E509F090E68AE4F090E68B04F05D
:20045400803390E6BCE0FF90E6BAE0F5108F82120354E582701F90E6A0E043E001F08015A0
:2004740090E6B9E0F582120077E582700890E6A0E043E001F090E6A0E043E080F022AF8294
:20049400747F5FFE24F74047EE240A83F582EE240D83F583E473BCC0D3E3D7E3DBE3DF0442
:2004B400040404040404040490E6A022EF30E7067EA27FE680047EA17FE68E828F83229063
:2004D400E6A32290E6A42290E6A52290E6A6229000002290E6B8E0FFBF80028022BF8102C2
:2004F4008008BF8202803702056E90E740E4F090E741F090E68AF090E68B7402F0805FE5A3
:200514000B25E0FFE50A420790E740EFF090E741E4F090E68AF090E68B7402F0804090E6D1
:20053400BCE0F582120492AE82AF838E048F05EE4F7003F582228C828D83E030E0047F0189
:2005540080027F0090E740EFF090E741E4F090E68AF090E68B7402F0800475820022758279
:20057400012290E6B8E0FF6005BF0258801B90E6BAE0FFBF0105750B00805290E6BAE0FFE9
:20059400BF060280487582002290E6BAE0703190E6BCE0F582120492AE82AF83E0FD530526
:2005B400FE8E828F83EDF090E6BCE0FF30E70343071053071F90E683EFF074204FF0800DF4
:2005D4007582002290E6B9E0F5820200777582012290E6B8E0FF6005BF026E802690E6BA5E
:2005F400E0FFBF020302066690E6BAE0FFBF0105750B01805D90E6BAE0FFBF060280537586
:2006140082002290E6BAE0703C90E6BCE0F582120492AE82AF83EE4F7003F582228E828FEB
:2006340083E0FD4305018E828F83EDF090E6BCE0FF30E70343071053071F90E683EFF074B4
:20065400204FF0800D7582002290E6B9E0F58202007775820122AF82D20010AF02C200EFF3
:20067400600E750CE3750D07750EE5750F07800C750CE5750D07750EE3750F07A20092AFC9
:200694002290E6BBE0FFBF01028019BF02028024BF0302802CBF0603020748BF07030207F7
:2006B400580207657E8E7F0790E6B3EFF090E6B4748EF02290E6B3E50DF090E6B4E50CF072
:2006D400227DF17E077F8090E6BAE0F5107B00EBB5100280430B8D008E018F028D828E8315
:2006F4008FF012076E28F8E439F9880589068A0774012DF9E43EFA8F0489828A838CF0120D
:20071400076EF9B9030280067D007E007F00ED4E6006C3E5109B50B7ED4E600F8D038E04D2
:2007340090E6B3ECF090E6B4EDF02290E6A0E043E001F0227EE77F0790E6B3EFF090E6B42E
:1A07540074E7F02290E6B3E50FF090E6B4E50EF02290E6A0E043E001F022B6
:0D00060075812012078AE582600302000365
:1C076E0020F71430F6148883A88220F507E6A88375830022E280F7E49322E0229A
:04078A007582002252
:00000001FF
